:02000000800B73
:10000B008012112D11B7B42304113C80F7C3943027
:10001B00114F80F0C0D0C0E0758CFE1146D0E0D0FF
:10002B00D032113CD2AFD2A9758901758CFED28C1E
:10003B00227530E07531D07532B02286A008B83306
:10004B00027830227930D709D709D72274DFF5B07F
:10005B00C0E07F32DFFEE5B07F32DFFEB5B0F77573
:10006B00B0FF540FB40F08D0E0D33340E1E422FFCC
:10007B00D0E054F04F221157700122F5821157B581
:10008B0082F4C0E07FFF0F1340FCD0E0C413500696
:10009B00CF2404CF80F7EF9000A79322787878785D
:1000AB00233734313038353223393633115770FC1E
:0500BB00118160FC2230
:00000001FF
